{
  "contractName": "Store",
  "abi": [
    {
      "constant": true,
      "inputs": [],
      "name": "sellPrice",
      "outputs": [
        {
          "name": "",
          "type": "uint256"
        }
      ],
      "payable": false,
      "stateMutability": "view",
      "type": "function"
    },
    {
      "constant": true,
      "inputs": [],
      "name": "buyMin",
      "outputs": [
        {
          "name": "",
          "type": "uint128"
        }
      ],
      "payable": false,
      "stateMutability": "view",
      "type": "function"
    },
    {
      "constant": true,
      "inputs": [],
      "name": "wallet",
      "outputs": [
        {
          "name": "",
          "type": "address"
        }
      ],
      "payable": false,
      "stateMutability": "view",
      "type": "function"
    },
    {
      "constant": true,
      "inputs": [],
      "name": "paused",
      "outputs": [
        {
          "name": "",
          "type": "bool"
        }
      ],
      "payable": false,
      "stateMutability": "view",
      "type": "function"
    },
    {
      "constant": true,
      "inputs": [
        {
          "name": "",
          "type": "address"
        }
      ],
      "name": "etherToPay",
      "outputs": [
        {
          "name": "",
          "type": "uint256"
        }
      ],
      "payable": false,
      "stateMutability": "view",
      "type": "function"
    },
    {
      "constant": false,
      "inputs": [],
      "name": "renounceOwnership",
      "outputs": [],
      "payable": false,
      "stateMutability": "nonpayable",
      "type": "function"
    },
    {
      "constant": true,
      "inputs": [],
      "name": "buyPrice",
      "outputs": [
        {
          "name": "",
          "type": "uint256"
        }
      ],
      "payable": false,
      "stateMutability": "view",
      "type": "function"
    },
    {
      "constant": true,
      "inputs": [],
      "name": "owner",
      "outputs": [
        {
          "name": "",
          "type": "address"
        }
      ],
      "payable": false,
      "stateMutability": "view",
      "type": "function"
    },
    {
      "constant": true,
      "inputs": [],
      "name": "isOwner",
      "outputs": [
        {
          "name": "",
          "type": "bool"
        }
      ],
      "payable": false,
      "stateMutability": "view",
      "type": "function"
    },
    {
      "constant": true,
      "inputs": [],
      "name": "withdrawMin",
      "outputs": [
        {
          "name": "",
          "type": "uint128"
        }
      ],
      "payable": false,
      "stateMutability": "view",
      "type": "function"
    },
    {
      "constant": false,
      "inputs": [
        {
          "name": "newOwner",
          "type": "address"
        }
      ],
      "name": "transferOwnership",
      "outputs": [],
      "payable": false,
      "stateMutability": "nonpayable",
      "type": "function"
    },
    {
      "constant": true,
      "inputs": [],
      "name": "token",
      "outputs": [
        {
          "name": "",
          "type": "address"
        }
      ],
      "payable": false,
      "stateMutability": "view",
      "type": "function"
    },
    {
      "inputs": [
        {
          "name": "_token",
          "type": "address"
        },
        {
          "name": "_wallet",
          "type": "address"
        }
      ],
      "payable": false,
      "stateMutability": "nonpayable",
      "type": "constructor"
    },
    {
      "payable": false,
      "stateMutability": "nonpayable",
      "type": "fallback"
    },
    {
      "anonymous": false,
      "inputs": [
        {
          "indexed": true,
          "name": "owner",
          "type": "address"
        },
        {
          "indexed": false,
          "name": "value",
          "type": "uint256"
        }
      ],
      "name": "Buy",
      "type": "event"
    },
    {
      "anonymous": false,
      "inputs": [
        {
          "indexed": true,
          "name": "owner",
          "type": "address"
        },
        {
          "indexed": false,
          "name": "value",
          "type": "uint256"
        }
      ],
      "name": "Sell",
      "type": "event"
    },
    {
      "anonymous": false,
      "inputs": [
        {
          "indexed": true,
          "name": "target",
          "type": "address"
        },
        {
          "indexed": false,
          "name": "sended",
          "type": "uint256"
        }
      ],
      "name": "Withdraw",
      "type": "event"
    },
    {
      "anonymous": false,
      "inputs": [
        {
          "indexed": false,
          "name": "value",
          "type": "uint256"
        }
      ],
      "name": "BuyPrice",
      "type": "event"
    },
    {
      "anonymous": false,
      "inputs": [
        {
          "indexed": false,
          "name": "value",
          "type": "uint256"
        }
      ],
      "name": "SellPrice",
      "type": "event"
    },
    {
      "anonymous": false,
      "inputs": [
        {
          "indexed": true,
          "name": "previousOwner",
          "type": "address"
        },
        {
          "indexed": true,
          "name": "newOwner",
          "type": "address"
        }
      ],
      "name": "OwnershipTransferred",
      "type": "event"
    },
    {
      "constant": false,
      "inputs": [
        {
          "name": "_wallet",
          "type": "address"
        }
      ],
      "name": "setWallet",
      "outputs": [],
      "payable": false,
      "stateMutability": "nonpayable",
      "type": "function"
    },
    {
      "constant": false,
      "inputs": [
        {
          "name": "_token",
          "type": "address"
        }
      ],
      "name": "setToken",
      "outputs": [],
      "payable": false,
      "stateMutability": "nonpayable",
      "type": "function"
    },
    {
      "constant": false,
      "inputs": [
        {
          "name": "value",
          "type": "uint256"
        }
      ],
      "name": "setBuyPrice",
      "outputs": [],
      "payable": false,
      "stateMutability": "nonpayable",
      "type": "function"
    },
    {
      "constant": false,
      "inputs": [
        {
          "name": "value",
          "type": "uint256"
        }
      ],
      "name": "setSellPrice",
      "outputs": [],
      "payable": false,
      "stateMutability": "nonpayable",
      "type": "function"
    },
    {
      "constant": false,
      "inputs": [
        {
          "name": "value",
          "type": "bool"
        }
      ],
      "name": "setPause",
      "outputs": [],
      "payable": false,
      "stateMutability": "nonpayable",
      "type": "function"
    },
    {
      "constant": false,
      "inputs": [],
      "name": "buy",
      "outputs": [
        {
          "name": "",
          "type": "bool"
        }
      ],
      "payable": true,
      "stateMutability": "payable",
      "type": "function"
    },
    {
      "constant": false,
      "inputs": [
        {
          "name": "units",
          "type": "uint256"
        }
      ],
      "name": "sell",
      "outputs": [
        {
          "name": "",
          "type": "bool"
        }
      ],
      "payable": false,
      "stateMutability": "nonpayable",
      "type": "function"
    },
    {
      "constant": false,
      "inputs": [],
      "name": "withdraw",
      "outputs": [
        {
          "name": "",
          "type": "bool"
        }
      ],
      "payable": false,
      "stateMutability": "nonpayable",
      "type": "function"
    },
    {
      "constant": false,
      "inputs": [
        {
          "name": "update",
          "type": "address"
        }
      ],
      "name": "kill",
      "outputs": [],
      "payable": false,
      "stateMutability": "nonpayable",
      "type": "function"
    }
  ],
  "bytecode": "0x6020610462606039602080610462016080393360009081556060516001556080516002557064000000000000000000005af3107a400063a6f2ae3a5570960000000000000000000048c27395000063e4849b32556103ff90819061006390396000f3fe6000808052600490601c3763a6f2ae3a6000511415610110573461002257600080fd5b6005541561002f57600080fd5b63a6f2ae3a5460006060819052600254608052700100000000000000000000000000000000909104111561006257600080fd5b6060516370a08231600052608051600452602060006020600060015460155a03fa50600051101561009257600080fd5b6000806000803460805160155a03f1506323b872dd6000526080516004523360245260605160445260206000606460008060015460155a03f1506000516100d857600080fd5b606051600052337fe3d4187f6ca4248660cc0ac8b8056515bac4a8132be2eca31d6d0cc170722a7e60206000a2600160005260206000f35b63e4849b3260005114156101a4573660241461012b57600080fd5b6005541561013857600080fd5b60043560605263cbf27cdd6000523360045260605160245260206000604460008060025460155a03f15060005161016e57600080fd5b60003355337f5e5e995ce3133561afceaa51a9a154d5db228cd7525d34df5185582c18d3df0960206000a2600160005260206000f35b633ccfd60b600051141561023c57600554156101bf57600080fd5b33546060526060516002543110156101d657600080fd5b6000335563c1756a2c6000523360045260605160245260206000604460008060025460155a03f15060005161020a57600080fd5b337f85017931eb9da51c61da7d7ab740bc6b9410c6ac198ca51ef8a351b2f134f66860206000a2600160005260206000f35b6363ae8d6c6000511415610298573660241461025757600080fd5b600554191561026557600080fd5b600054331461027357600080fd5b63a6f2ae3a805470010000000000000000000000000000000090819004026004351790555b63fc6634b960005114156102f457366024146102b357600080fd5b60055419156102c157600080fd5b60005433146102cf57600080fd5b63e4849b32805470010000000000000000000000000000000090819004026004351790555b63bedb86fb6000511415610324573660241461030f57600080fd5b600054331461031d57600080fd5b6004356005555b638620410b600051141561033e5760006060908152602090f35b634dbc9a1c600051141561036157608060020a63a6f2ae3a540460605260206060f35b634b750334600051141561037b5760006060908152602090f35b63ed17c876600051141561039e57608060020a63e4849b32540460605260206060f35b63cbf0b0c060005114156103f057366024146103b957600080fd5b60005433146103c757600080fd5b7401000000000000000000000000000000000000000060043504156103eb57600080fd5b600435ff5b34156103fb57600080fd5b600256",
  "source": "pragma solidity ^0.5.0;\n\nimport \"openzeppelin-solidity/contracts/token/ERC20/IERC20.sol\";\nimport \"openzeppelin-solidity/contracts/math/SafeMath.sol\";\nimport \"openzeppelin-solidity/contracts/ownership/Ownable.sol\";\nimport \"./interfaces/IWallet.sol\";\n\ncontract Store is Ownable {\n    using SafeMath for uint256;\n\n    IERC20 public token;\n    address payable public wallet;\n\n    uint128 public buyMin = 100;\n    uint128 public withdrawMin = 150;\n\n    uint256 public buyPrice = 0.0001 ether;\n    uint256 public sellPrice = 0.00008 ether;\n\n    uint256 private comissionValue = 0.00002 ether;\n    uint256 private comission = 0;\n\n    bool public paused = false;\n\n    mapping(address=>uint256) public etherToPay;\n\n    event Buy(address indexed owner, uint256 value);\n    event Sell(address indexed owner, uint256 value);\n    event Withdraw(address indexed target, uint256 sended);\n    event BuyPrice(uint256 value);\n    event SellPrice(uint256 value);\n\n    modifier whenNotPaused {\n        require(!paused, \"paused\");\n        _;\n    }\n\n    modifier whenPaused {\n        require(paused, \"not-paused\");\n        _;\n    }\n\n    modifier isTokenSender {\n        require(msg.sender == address(token));\n        _;\n    }\n\n    constructor(address _token, address payable _wallet) public Ownable() {\n        iSetToken(_token);\n        iSetWallet(_wallet);\n    }\n\n    function iSetWallet(address payable _wallet) internal { wallet = _wallet; }\n    function setWallet(address payable _wallet)\n        public\n        onlyOwner\n        whenPaused\n    {\n        iSetWallet(_wallet);\n    }\n\n    function iSetToken(address _token) internal { token = IERC20(_token); }\n    function setToken(address _token)\n        public\n        onlyOwner\n        whenPaused\n    {\n        iSetToken(_token);\n    }\n\n    function setBuyPrice(uint256 value)\n        public\n        onlyOwner\n        whenPaused\n    {\n        buyPrice = value;\n        emit BuyPrice(value);\n    }\n\n    function setSellPrice(uint256 value)\n        public\n        onlyOwner\n        whenPaused\n    {\n        sellPrice = value;\n        emit SellPrice(value);\n    }\n\n    function setPause(bool value)\n        public\n        onlyOwner\n    {\n        paused = value;\n    }\n\n    function buy()\n        public\n        payable\n        whenNotPaused\n        returns(bool)\n    {\n        uint256 units = uint(msg.value).div(buyPrice);\n        require(units >= buyMin, \"min-units\");\n        require(token.balanceOf(wallet) >= units, \"token-min-units\");\n        require(token.transferFrom(wallet, msg.sender, units), \"no-transfered\");\n        wallet.transfer(msg.value);\n        emit Buy(msg.sender, units);\n        return true;\n    }\n\n    function sell(uint256 units)\n        public\n        whenNotPaused\n        returns(bool)\n    {\n        require(IWallet(wallet).captureTokens(msg.sender, units), \"transfer-failed\");\n\n        etherToPay[msg.sender] = sellPrice.mul(units);\n        //comission += comissionValue.mul(units);\n\n        emit Sell(msg.sender, etherToPay[msg.sender]);\n        return true;\n    }\n\n    function withdraw()\n        public\n        whenNotPaused\n        returns(bool)\n    {\n        uint256 ethers = etherToPay[msg.sender];\n        require(wallet.balance >= ethers, \"balance-down\");\n        etherToPay[msg.sender] = 0;\n        IWallet(wallet).sendEther(msg.sender, ethers);\n\n        emit Withdraw(msg.sender, ethers);\n        \n        return true;\n    }\n\n    function kill(address payable update)\n        public\n        onlyOwner\n    {\n        selfdestruct(update);\n    }\n\n    function () external {\n        revert();\n    }\n}",
  "sourcePath": "/Users/aroncastrocoelho/projects/comedy/contracts/Store.sol",
  "compiler": {
    "name": "solc",
    "version": "0.5.0+commit.1d4f565a.Emscripten.clang"
  },
  "schemaVersion": "3.0.0",
  "updatedAt": "2019-01-16T17:31:44.742Z",
  "devdoc": {
    "methods": {
      "isOwner()": {
        "return": "true if `msg.sender` is the owner of the contract."
      },
      "owner()": {
        "return": "the address of the owner."
      },
      "renounceOwnership()": {
        "details": "Allows the current owner to relinquish control of the contract."
      },
      "transferOwnership(address)": {
        "details": "Allows the current owner to transfer control of the contract to a newOwner.",
        "params": {
          "newOwner": "The address to transfer ownership to."
        }
      }
    }
  },
  "userdoc": {
    "methods": {
      "renounceOwnership()": {
        "notice": "Renouncing to ownership will leave the contract without an owner. It will not be possible to call the functions with the `onlyOwner` modifier anymore."
      }
    }
  }
}