{
  "contractName": "Store",
  "abi": [
    {
      "constant": true,
      "inputs": [],
      "name": "sellPrice",
      "outputs": [
        {
          "name": "",
          "type": "uint256"
        }
      ],
      "payable": false,
      "stateMutability": "view",
      "type": "function"
    },
    {
      "constant": true,
      "inputs": [],
      "name": "buyMin",
      "outputs": [
        {
          "name": "",
          "type": "uint128"
        }
      ],
      "payable": false,
      "stateMutability": "view",
      "type": "function"
    },
    {
      "constant": true,
      "inputs": [],
      "name": "paused",
      "outputs": [
        {
          "name": "",
          "type": "bool"
        }
      ],
      "payable": false,
      "stateMutability": "view",
      "type": "function"
    },
    {
      "constant": true,
      "inputs": [
        {
          "name": "",
          "type": "address"
        }
      ],
      "name": "etherToPay",
      "outputs": [
        {
          "name": "",
          "type": "uint256"
        }
      ],
      "payable": false,
      "stateMutability": "view",
      "type": "function"
    },
    {
      "constant": false,
      "inputs": [],
      "name": "renounceOwnership",
      "outputs": [],
      "payable": false,
      "stateMutability": "nonpayable",
      "type": "function"
    },
    {
      "constant": true,
      "inputs": [],
      "name": "buyPrice",
      "outputs": [
        {
          "name": "",
          "type": "uint256"
        }
      ],
      "payable": false,
      "stateMutability": "view",
      "type": "function"
    },
    {
      "constant": true,
      "inputs": [],
      "name": "owner",
      "outputs": [
        {
          "name": "",
          "type": "address"
        }
      ],
      "payable": false,
      "stateMutability": "view",
      "type": "function"
    },
    {
      "constant": true,
      "inputs": [],
      "name": "isOwner",
      "outputs": [
        {
          "name": "",
          "type": "bool"
        }
      ],
      "payable": false,
      "stateMutability": "view",
      "type": "function"
    },
    {
      "constant": true,
      "inputs": [],
      "name": "sellMin",
      "outputs": [
        {
          "name": "",
          "type": "uint128"
        }
      ],
      "payable": false,
      "stateMutability": "view",
      "type": "function"
    },
    {
      "constant": false,
      "inputs": [
        {
          "name": "newOwner",
          "type": "address"
        }
      ],
      "name": "transferOwnership",
      "outputs": [],
      "payable": false,
      "stateMutability": "nonpayable",
      "type": "function"
    },
    {
      "inputs": [
        {
          "name": "_registry",
          "type": "address"
        }
      ],
      "payable": false,
      "stateMutability": "nonpayable",
      "type": "constructor"
    },
    {
      "payable": false,
      "stateMutability": "nonpayable",
      "type": "fallback"
    },
    {
      "anonymous": false,
      "inputs": [
        {
          "indexed": true,
          "name": "owner",
          "type": "address"
        },
        {
          "indexed": false,
          "name": "value",
          "type": "uint256"
        }
      ],
      "name": "OnBuy",
      "type": "event"
    },
    {
      "anonymous": false,
      "inputs": [
        {
          "indexed": true,
          "name": "owner",
          "type": "address"
        },
        {
          "indexed": false,
          "name": "value",
          "type": "uint256"
        }
      ],
      "name": "OnSell",
      "type": "event"
    },
    {
      "anonymous": false,
      "inputs": [
        {
          "indexed": true,
          "name": "target",
          "type": "address"
        },
        {
          "indexed": false,
          "name": "sended",
          "type": "uint256"
        }
      ],
      "name": "OnWithdraw",
      "type": "event"
    },
    {
      "anonymous": false,
      "inputs": [
        {
          "indexed": false,
          "name": "min",
          "type": "uint256"
        },
        {
          "indexed": false,
          "name": "value",
          "type": "uint256"
        }
      ],
      "name": "OnBuyChange",
      "type": "event"
    },
    {
      "anonymous": false,
      "inputs": [
        {
          "indexed": false,
          "name": "min",
          "type": "uint256"
        },
        {
          "indexed": false,
          "name": "value",
          "type": "uint256"
        }
      ],
      "name": "OnSellChange",
      "type": "event"
    },
    {
      "anonymous": false,
      "inputs": [
        {
          "indexed": true,
          "name": "previousOwner",
          "type": "address"
        },
        {
          "indexed": true,
          "name": "newOwner",
          "type": "address"
        }
      ],
      "name": "OwnershipTransferred",
      "type": "event"
    },
    {
      "constant": false,
      "inputs": [
        {
          "name": "min",
          "type": "uint256"
        },
        {
          "name": "value",
          "type": "uint256"
        }
      ],
      "name": "setBuy",
      "outputs": [],
      "payable": false,
      "stateMutability": "nonpayable",
      "type": "function"
    },
    {
      "constant": false,
      "inputs": [
        {
          "name": "min",
          "type": "uint256"
        },
        {
          "name": "value",
          "type": "uint256"
        }
      ],
      "name": "setSell",
      "outputs": [],
      "payable": false,
      "stateMutability": "nonpayable",
      "type": "function"
    },
    {
      "constant": false,
      "inputs": [
        {
          "name": "value",
          "type": "bool"
        }
      ],
      "name": "setPause",
      "outputs": [],
      "payable": false,
      "stateMutability": "nonpayable",
      "type": "function"
    },
    {
      "constant": false,
      "inputs": [],
      "name": "buy",
      "outputs": [
        {
          "name": "",
          "type": "bool"
        }
      ],
      "payable": true,
      "stateMutability": "payable",
      "type": "function"
    },
    {
      "constant": false,
      "inputs": [
        {
          "name": "units",
          "type": "uint256"
        }
      ],
      "name": "sell",
      "outputs": [
        {
          "name": "",
          "type": "bool"
        }
      ],
      "payable": false,
      "stateMutability": "nonpayable",
      "type": "function"
    },
    {
      "constant": false,
      "inputs": [],
      "name": "withdraw",
      "outputs": [
        {
          "name": "",
          "type": "bool"
        }
      ],
      "payable": false,
      "stateMutability": "nonpayable",
      "type": "function"
    }
  ],
  "bytecode": "0x60806040526064600260006101000a8154816fffffffffffffffffffffffffffffffff02191690836fffffffffffffffffffffffffffffffff1602179055506096600260106101000a8154816fffffffffffffffffffffffffffffffff02191690836fffffffffffffffffffffffffffffffff160217905550655af3107a40006003556548c2739500006004556000600560006101000a81548160ff0219169083151502179055503480156100b357600080fd5b50604051602080611b88833981018060405260208110156100d357600080fd5b8101908080519060200190929190505050336000806101000a81548173ffffffffffffffffffffffffffffffffffffffff021916908373ffffffffffffffffffffffffffffffffffffffff1602179055506000809054906101000a900473ffffffffffffffffffffffffffffffffffffffff1673ffffffffffffffffffffffffffffffffffffffff16600073ffffffffffffffffffffffffffffffffffffffff167f8be0079c531659141344cd1fd0a4f28419497f9722a3daafe3b4186f6b6457e060405160405180910390a380600160006101000a81548173ffffffffffffffffffffffffffffffffffffffff021916908373ffffffffffffffffffffffffffffffffffffffff16021790555050611997806101f16000396000f3fe6080604052600436106100e6576000357c0100000000000000000000000000000000000000000000000000000000900463ffffffff1680633ccfd60b146100f85780634b750334146101275780634dbc9a1c146101525780635c975abb146101a15780636b074df3146101d0578063715018a6146102355780638620410b1461024c5780638da5cb5b146102775780638f32d59b146102ce578063a0821ee5146102fd578063a6f2ae3a14610342578063bedb86fb14610364578063d0f0c57c146103a1578063e4849b32146103e6578063ed17c87614610439578063f2fde38b14610488575b3480156100f257600080fd5b50600080fd5b34801561010457600080fd5b5061010d6104d9565b604051808215151515815260200191505060405180910390f35b34801561013357600080fd5b5061013c610922565b6040518082815260200191505060405180910390f35b34801561015e57600080fd5b50610167610928565b60405180826fffffffffffffffffffffffffffffffff166fffffffffffffffffffffffffffffffff16815260200191505060405180910390f35b3480156101ad57600080fd5b506101b661094a565b604051808215151515815260200191505060405180910390f35b3480156101dc57600080fd5b5061021f600480360360208110156101f357600080fd5b81019080803573ffffffffffffffffffffffffffffffffffffffff16906020019092919050505061095d565b6040518082815260200191505060405180910390f35b34801561024157600080fd5b5061024a610975565b005b34801561025857600080fd5b50610261610a47565b6040518082815260200191505060405180910390f35b34801561028357600080fd5b5061028c610a4d565b604051808273ffffffffffffffffffffffffffffffffffffffff1673ffffffffffffffffffffffffffffffffffffffff16815260200191505060405180910390f35b3480156102da57600080fd5b506102e3610a76565b604051808215151515815260200191505060405180910390f35b34801561030957600080fd5b506103406004803603604081101561032057600080fd5b810190808035906020019092919080359060200190929190505050610acd565b005b61034a610be6565b604051808215151515815260200191505060405180910390f35b34801561037057600080fd5b5061039f6004803603602081101561038757600080fd5b810190808035151590602001909291905050506112a2565b005b3480156103ad57600080fd5b506103e4600480360360408110156103c457600080fd5b8101908080359060200190929190803590602001909291905050506112d2565b005b3480156103f257600080fd5b5061041f6004803603602081101561040957600080fd5b81019080803590602001909291905050506113ec565b604051808215151515815260200191505060405180910390f35b34801561044557600080fd5b5061044e6117be565b60405180826fffffffffffffffffffffffffffffffff166fffffffffffffffffffffffffffffffff16815260200191505060405180910390f35b34801561049457600080fd5b506104d7600480360360208110156104ab57600080fd5b81019080803573ffffffffffffffffffffffffffffffffffffffff1690602001909291905050506117e0565b005b6000600560009054906101000a900460ff16151515610560576040517f08c379a00000000000000000000000000000000000000000000000000000000081526004018080602001828103825260068152602001807f706175736564000000000000000000000000000000000000000000000000000081525060200191505060405180910390fd5b6000600160009054906101000a900473ffffffffffffffffffffffffffffffffffffffff1673ffffffffffffffffffffffffffffffffffffffff1663358177736040518163ffffffff167c01000000000000000000000000000000000000000000000000000000000281526004018080602001828103825260068152602001807f77616c6c65740000000000000000000000000000000000000000000000000000815250602001915050602060405180830381600087803b15801561062457600080fd5b505af1158015610638573d6000803e3d6000fd5b505050506040513d602081101561064e57600080fd5b810190808051906020019092919050505090506000600660003373ffffffffffffffffffffffffffffffffffffffff1673ffffffffffffffffffffffffffffffffffffffff1681526020019081526020016000205490506000600660003373ffffffffffffffffffffffffffffffffffffffff1673ffffffffffffffffffffffffffffffffffffffff16815260200190815260200160002081905550808273ffffffffffffffffffffffffffffffffffffffff163110151515610779576040517f08c379a000000000000000000000000000000000000000000000000000000000815260040180806020018281038252600c8152602001807f62616c616e63652d646f776e000000000000000000000000000000000000000081525060200191505060405180910390fd5b8173ffffffffffffffffffffffffffffffffffffffff1663c1756a2c33836040518363ffffffff167c0100000000000000000000000000000000000000000000000000000000028152600401808373ffffffffffffffffffffffffffffffffffffffff1673ffffffffffffffffffffffffffffffffffffffff16815260200182815260200192505050602060405180830381600087803b15801561081c57600080fd5b505af1158015610830573d6000803e3d6000fd5b505050506040513d602081101561084657600080fd5b810190808051906020019092919050505015156108cb576040517f08c379a000000000000000000000000000000000000000000000000000000000815260040180806020018281038252600b8152602001807f73656e642d6661696c656400000000000000000000000000000000000000000081525060200191505060405180910390fd5b3373ffffffffffffffffffffffffffffffffffffffff167fbace9fd79d5ea02ed8b43fa96af07e4e8f859a2f71ff878c748f5c22c5780284826040518082815260200191505060405180910390a260019250505090565b60045481565b600260009054906101000a90046fffffffffffffffffffffffffffffffff1681565b600560009054906101000a900460ff1681565b60066020528060005260406000206000915090505481565b61097d610a76565b151561098857600080fd5b600073ffffffffffffffffffffffffffffffffffffffff166000809054906101000a900473ffffffffffffffffffffffffffffffffffffffff1673ffffffffffffffffffffffffffffffffffffffff167f8be0079c531659141344cd1fd0a4f28419497f9722a3daafe3b4186f6b6457e060405160405180910390a360008060006101000a81548173ffffffffffffffffffffffffffffffffffffffff021916908373ffffffffffffffffffffffffffffffffffffffff160217905550565b60035481565b60008060009054906101000a900473ffffffffffffffffffffffffffffffffffffffff16905090565b60008060009054906101000a900473ffffffffffffffffffffffffffffffffffffffff1673ffffffffffffffffffffffffffffffffffffffff163373ffffffffffffffffffffffffffffffffffffffff1614905090565b610ad5610a76565b1515610ae057600080fd5b600560009054906101000a900460ff161515610b64576040517f08c379a000000000000000000000000000000000000000000000000000000000815260040180806020018281038252600a8152602001807f6e6f742d7061757365640000000000000000000000000000000000000000000081525060200191505060405180910390fd5b81600260106101000a8154816fffffffffffffffffffffffffffffffff02191690836fffffffffffffffffffffffffffffffff160217905550806004819055507e983317be449529580485e4637e684a06f0bee83aad23961a78d14b039d0ee28282604051808381526020018281526020019250505060405180910390a15050565b6000600560009054906101000a900460ff16151515610c6d576040517f08c379a00000000000000000000000000000000000000000000000000000000081526004018080602001828103825260068152602001807f706175736564000000000000000000000000000000000000000000000000000081525060200191505060405180910390fd5b6000610c84600354346117ff90919063ffffffff16565b90506000600160009054906101000a900473ffffffffffffffffffffffffffffffffffffffff1690506000610da88273ffffffffffffffffffffffffffffffffffffffff1663358177736040518163ffffffff167c01000000000000000000000000000000000000000000000000000000000281526004018080602001828103825260068152602001807f77616c6c65740000000000000000000000000000000000000000000000000000815250602001915050602060405180830381600087803b158015610d5257600080fd5b505af1158015610d66573d6000803e3d6000fd5b505050506040513d6020811015610d7c57600080fd5b810190808051906020019092919050505073ffffffffffffffffffffffffffffffffffffffff16611829565b905060008273ffffffffffffffffffffffffffffffffffffffff1663358177736040518163ffffffff167c01000000000000000000000000000000000000000000000000000000000281526004018080602001828103825260058152602001807f746f6b656e000000000000000000000000000000000000000000000000000000815250602001915050602060405180830381600087803b158015610e4c57600080fd5b505af1158015610e60573d6000803e3d6000fd5b505050506040513d6020811015610e7657600080fd5b81019080805190602001909291905050509050600260009054906101000a90046fffffffffffffffffffffffffffffffff166fffffffffffffffffffffffffffffffff168410151515610f31576040517f08c379a00000000000000000000000000000000000000000000000000000000081526004018080602001828103825260098152602001807f6d696e2d756e697473000000000000000000000000000000000000000000000081525060200191505060405180910390fd5b838173ffffffffffffffffffffffffffffffffffffffff166370a08231846040518263ffffffff167c0100000000000000000000000000000000000000000000000000000000028152600401808273ffffffffffffffffffffffffffffffffffffffff1673ffffffffffffffffffffffffffffffffffffffff16815260200191505060206040518083038186803b158015610fcb57600080fd5b505afa158015610fdf573d6000803e3d6000fd5b505050506040513d6020811015610ff557600080fd5b81019080805190602001909291905050501015151561107c576040517f08c379a000000000000000000000000000000000000000000000000000000000815260040180806020018281038252600f8152602001807f746f6b656e2d6d696e2d756e697473000000000000000000000000000000000081525060200191505060405180910390fd5b8073ffffffffffffffffffffffffffffffffffffffff166323b872dd8333876040518463ffffffff167c0100000000000000000000000000000000000000000000000000000000028152600401808473ffffffffffffffffffffffffffffffffffffffff1673ffffffffffffffffffffffffffffffffffffffff1681526020018373ffffffffffffffffffffffffffffffffffffffff1673ffffffffffffffffffffffffffffffffffffffff1681526020018281526020019350505050602060405180830381600087803b15801561115357600080fd5b505af1158015611167573d6000803e3d6000fd5b505050506040513d602081101561117d57600080fd5b81019080805190602001909291905050501515611202576040517f08c379a000000000000000000000000000000000000000000000000000000000815260040180806020018281038252600d8152602001807f6e6f2d7472616e7366657265640000000000000000000000000000000000000081525060200191505060405180910390fd5b8173ffffffffffffffffffffffffffffffffffffffff166108fc349081150290604051600060405180830381858888f19350505050158015611248573d6000803e3d6000fd5b503373ffffffffffffffffffffffffffffffffffffffff167f9664b784eb25a025bd3a090541540f3c88fd1f8516df9fdf9f38e849ecb39b7a856040518082815260200191505060405180910390a2600194505050505090565b6112aa610a76565b15156112b557600080fd5b80600560006101000a81548160ff02191690831515021790555050565b6112da610a76565b15156112e557600080fd5b600560009054906101000a900460ff161515611369576040517f08c379a000000000000000000000000000000000000000000000000000000000815260040180806020018281038252600a8152602001807f6e6f742d7061757365640000000000000000000000000000000000000000000081525060200191505060405180910390fd5b81600260006101000a8154816fffffffffffffffffffffffffffffffff02191690836fffffffffffffffffffffffffffffffff160217905550806003819055507f4dfdb814b6bc61915ad2625da31e9b74690459fb9315884fef2c48ca6db7bbb88282604051808381526020018281526020019250505060405180910390a15050565b6000600560009054906101000a900460ff16151515611473576040517f08c379a00000000000000000000000000000000000000000000000000000000081526004018080602001828103825260068152602001807f706175736564000000000000000000000000000000000000000000000000000081525060200191505060405180910390fd5b6000600160009054906101000a900473ffffffffffffffffffffffffffffffffffffffff1673ffffffffffffffffffffffffffffffffffffffff1663358177736040518163ffffffff167c01000000000000000000000000000000000000000000000000000000000281526004018080602001828103825260068152602001807f77616c6c65740000000000000000000000000000000000000000000000000000815250602001915050602060405180830381600087803b15801561153757600080fd5b505af115801561154b573d6000803e3d6000fd5b505050506040513d602081101561156157600080fd5b810190808051906020019092919050505090508073ffffffffffffffffffffffffffffffffffffffff1663cbf27cdd33856040518363ffffffff167c0100000000000000000000000000000000000000000000000000000000028152600401808373ffffffffffffffffffffffffffffffffffffffff1673ffffffffffffffffffffffffffffffffffffffff16815260200182815260200192505050602060405180830381600087803b15801561161757600080fd5b505af115801561162b573d6000803e3d6000fd5b505050506040513d602081101561164157600080fd5b810190808051906020019092919050505015156116c6576040517f08c379a000000000000000000000000000000000000000000000000000000000815260040180806020018281038252600e8152602001807f636170747572652d6661696c656400000000000000000000000000000000000081525060200191505060405180910390fd5b6116db8360045461183390919063ffffffff16565b600660003373ffffffffffffffffffffffffffffffffffffffff1673ffffffffffffffffffffffffffffffffffffffff168152602001908152602001600020600082825401925050819055503373ffffffffffffffffffffffffffffffffffffffff167faff504a739a5e1985bc3984970a2f3cc4ee38cd6e67f19bd99dddcd611ad1378600660003373ffffffffffffffffffffffffffffffffffffffff1673ffffffffffffffffffffffffffffffffffffffff168152602001908152602001600020546040518082815260200191505060405180910390a26001915050919050565b600260109054906101000a90046fffffffffffffffffffffffffffffffff1681565b6117e8610a76565b15156117f357600080fd5b6117fc81611871565b50565b6000808211151561180f57600080fd5b6000828481151561181c57fe5b0490508091505092915050565b6000819050919050565b600080831415611846576000905061186b565b6000828402905082848281151561185957fe5b0414151561186657600080fd5b809150505b92915050565b600073ffffffffffffffffffffffffffffffffffffffff168173ffffffffffffffffffffffffffffffffffffffff16141515156118ad57600080fd5b8073ffffffffffffffffffffffffffffffffffffffff166000809054906101000a900473ffffffffffffffffffffffffffffffffffffffff1673ffffffffffffffffffffffffffffffffffffffff167f8be0079c531659141344cd1fd0a4f28419497f9722a3daafe3b4186f6b6457e060405160405180910390a3806000806101000a81548173ffffffffffffffffffffffffffffffffffffffff021916908373ffffffffffffffffffffffffffffffffffffffff1602179055505056fea165627a7a723058208820630cd39da2a155403eca8289919dc951c9aea8ca719fbf50eb867c62fde40029",
  "source": "pragma solidity ^0.5.0;\n\nimport \"openzeppelin-solidity/contracts/token/ERC20/IERC20.sol\";\nimport \"openzeppelin-solidity/contracts/math/SafeMath.sol\";\nimport \"openzeppelin-solidity/contracts/ownership/Ownable.sol\";\n\nimport \"./library/AddressUtils.sol\";\nimport \"./interfaces/IRegistry.sol\";\nimport \"./interfaces/IWallet.sol\";\n\n\ncontract Store is Ownable {\n    using SafeMath for uint256;\n    using AddressUtils for address;\n\n    address private registry;\n\n    uint128 public buyMin = 100;\n    uint128 public sellMin = 150;\n\n    uint256 public buyPrice = 0.0001 ether;\n    uint256 public sellPrice = 0.00008 ether;\n\n    bool public paused = false;\n\n    mapping(address=>uint256) public etherToPay;\n\n    event OnBuy(address indexed owner, uint256 value);\n    event OnSell(address indexed owner, uint256 value);\n    event OnWithdraw(address indexed target, uint256 sended);\n    event OnBuyChange(uint256 min, uint256 value);\n    event OnSellChange(uint256 min, uint256 value);\n\n    modifier whenNotPaused {\n        require(!paused, \"paused\");\n        _;\n    }\n\n    modifier whenPaused {\n        require(paused, \"not-paused\");\n        _;\n    }\n\n    constructor(address _registry)\n        public\n        Ownable()\n    {\n        registry = _registry;\n    }\n\n\n    function setBuy(uint256 min, uint256 value)\n        public\n        onlyOwner\n        whenPaused\n    {\n        buyMin = uint128(min);\n        buyPrice = value;\n        emit OnBuyChange(min, value);\n    }\n\n    function setSell(uint256 min, uint256 value)\n        public\n        onlyOwner\n        whenPaused\n    {\n        sellMin = uint128(min);\n        sellPrice = value;\n        emit OnSellChange(min, value);\n    }\n\n    function setPause(bool value)\n        public\n        onlyOwner\n    {\n        paused = value;\n    }\n\n    function buy()\n        public\n        payable\n        whenNotPaused\n        returns(bool)\n    {\n        uint256 units = uint(msg.value).div(buyPrice);\n        address _registry = registry;\n        address payable wallet = IRegistry(_registry).getContract(\"wallet\").toPayable();\n        IERC20 token = IERC20(IRegistry(_registry).getContract(\"token\"));\n\n        require(units >= buyMin, \"min-units\");\n        require(token.balanceOf(wallet) >= units, \"token-min-units\");\n        require(token.transferFrom(wallet, msg.sender, units), \"no-transfered\");\n        \n        wallet.transfer(msg.value);\n        \n        emit OnBuy(msg.sender, units);\n        return true;\n    }\n\n    function sell(uint256 units)\n        public\n        whenNotPaused\n        returns(bool)\n    {\n        address wallet = IRegistry(registry).getContract(\"wallet\");\n        require(IWallet(wallet)\n            .captureTokens(msg.sender, units), \"capture-failed\");\n\n        etherToPay[msg.sender] += sellPrice.mul(units);\n\n        emit OnSell(msg.sender, etherToPay[msg.sender]);\n        return true;\n    }\n\n    function withdraw()\n        public\n        whenNotPaused\n        returns(bool)\n    {\n        address wallet = IRegistry(registry).getContract(\"wallet\");\n        uint256 ethers = etherToPay[msg.sender];\n        etherToPay[msg.sender] = 0;\n\n        require(wallet.balance >= ethers, \"balance-down\");\n        require(IWallet(wallet).sendEther(msg.sender, ethers), \"send-failed\");\n\n        emit OnWithdraw(msg.sender, ethers);\n        \n        return true;\n    }\n\n    function () external {\n        revert();\n    }\n}",
  "sourcePath": "/Users/aroncastrocoelho/projects/comedy/contracts/Store.sol",
  "compiler": {
    "name": "solc",
    "version": "0.5.0+commit.1d4f565a.Emscripten.clang"
  },
  "schemaVersion": "3.0.0",
  "updatedAt": "2019-01-27T23:37:41.672Z",
  "devdoc": {
    "methods": {
      "isOwner()": {
        "return": "true if `msg.sender` is the owner of the contract."
      },
      "owner()": {
        "return": "the address of the owner."
      },
      "renounceOwnership()": {
        "details": "Allows the current owner to relinquish control of the contract."
      },
      "transferOwnership(address)": {
        "details": "Allows the current owner to transfer control of the contract to a newOwner.",
        "params": {
          "newOwner": "The address to transfer ownership to."
        }
      }
    }
  },
  "userdoc": {
    "methods": {
      "renounceOwnership()": {
        "notice": "Renouncing to ownership will leave the contract without an owner. It will not be possible to call the functions with the `onlyOwner` modifier anymore."
      }
    }
  }
}